{
  "_format": "hh-sol-artifact-1",
  "contractName": "ETHLottery",
  "sourceName": "contracts/ETHLottery.sol",
  "abi": [
    {
      "inputs": [],
      "stateMutability": "nonpayable",
      "type": "constructor"
    },
    {
      "inputs": [],
      "name": "ApprovalCallerNotOwnerNorApproved",
      "type": "error"
    },
    {
      "inputs": [],
      "name": "ApprovalQueryForNonexistentToken",
      "type": "error"
    },
    {
      "inputs": [],
      "name": "ApproveToCaller",
      "type": "error"
    },
    {
      "inputs": [],
      "name": "BalanceQueryForZeroAddress",
      "type": "error"
    },
    {
      "inputs": [],
      "name": "MintERC2309QuantityExceedsLimit",
      "type": "error"
    },
    {
      "inputs": [],
      "name": "MintToZeroAddress",
      "type": "error"
    },
    {
      "inputs": [],
      "name": "MintZeroQuantity",
      "type": "error"
    },
    {
      "inputs": [],
      "name": "OwnerQueryForNonexistentToken",
      "type": "error"
    },
    {
      "inputs": [],
      "name": "OwnershipNotInitializedForExtraData",
      "type": "error"
    },
    {
      "inputs": [],
      "name": "TransferCallerNotOwnerNorApproved",
      "type": "error"
    },
    {
      "inputs": [],
      "name": "TransferFromIncorrectOwner",
      "type": "error"
    },
    {
      "inputs": [],
      "name": "TransferToNonERC721ReceiverImplementer",
      "type": "error"
    },
    {
      "inputs": [],
      "name": "TransferToZeroAddress",
      "type": "error"
    },
    {
      "inputs": [],
      "name": "URIQueryForNonexistentToken",
      "type": "error"
    },
    {
      "anonymous": false,
      "inputs": [
        {
          "indexed": true,
          "internalType": "address",
          "name": "owner",
          "type": "address"
        },
        {
          "indexed": true,
          "internalType": "address",
          "name": "approved",
          "type": "address"
        },
        {
          "indexed": true,
          "internalType": "uint256",
          "name": "tokenId",
          "type": "uint256"
        }
      ],
      "name": "Approval",
      "type": "event"
    },
    {
      "anonymous": false,
      "inputs": [
        {
          "indexed": true,
          "internalType": "address",
          "name": "owner",
          "type": "address"
        },
        {
          "indexed": true,
          "internalType": "address",
          "name": "operator",
          "type": "address"
        },
        {
          "indexed": false,
          "internalType": "bool",
          "name": "approved",
          "type": "bool"
        }
      ],
      "name": "ApprovalForAll",
      "type": "event"
    },
    {
      "anonymous": false,
      "inputs": [
        {
          "indexed": true,
          "internalType": "uint256",
          "name": "fromTokenId",
          "type": "uint256"
        },
        {
          "indexed": false,
          "internalType": "uint256",
          "name": "toTokenId",
          "type": "uint256"
        },
        {
          "indexed": true,
          "internalType": "address",
          "name": "from",
          "type": "address"
        },
        {
          "indexed": true,
          "internalType": "address",
          "name": "to",
          "type": "address"
        }
      ],
      "name": "ConsecutiveTransfer",
      "type": "event"
    },
    {
      "anonymous": false,
      "inputs": [
        {
          "indexed": false,
          "internalType": "address",
          "name": "sender",
          "type": "address"
        },
        {
          "indexed": false,
          "internalType": "uint256",
          "name": "qty",
          "type": "uint256"
        }
      ],
      "name": "NewBurnNumbers",
      "type": "event"
    },
    {
      "anonymous": false,
      "inputs": [
        {
          "indexed": false,
          "internalType": "address",
          "name": "sender",
          "type": "address"
        },
        {
          "indexed": false,
          "internalType": "uint256",
          "name": "qty",
          "type": "uint256"
        }
      ],
      "name": "NewNumbers",
      "type": "event"
    },
    {
      "anonymous": false,
      "inputs": [
        {
          "indexed": true,
          "internalType": "address",
          "name": "previousOwner",
          "type": "address"
        },
        {
          "indexed": true,
          "internalType": "address",
          "name": "newOwner",
          "type": "address"
        }
      ],
      "name": "OwnershipTransferred",
      "type": "event"
    },
    {
      "anonymous": false,
      "inputs": [
        {
          "indexed": true,
          "internalType": "address",
          "name": "from",
          "type": "address"
        },
        {
          "indexed": true,
          "internalType": "address",
          "name": "to",
          "type": "address"
        },
        {
          "indexed": true,
          "internalType": "uint256",
          "name": "tokenId",
          "type": "uint256"
        }
      ],
      "name": "Transfer",
      "type": "event"
    },
    {
      "inputs": [],
      "name": "MAX_FREE_PER_WALLET",
      "outputs": [
        {
          "internalType": "uint256",
          "name": "",
          "type": "uint256"
        }
      ],
      "stateMutability": "view",
      "type": "function"
    },
    {
      "inputs": [],
      "name": "MAX_FREE_SUPPLY",
      "outputs": [
        {
          "internalType": "uint256",
          "name": "",
          "type": "uint256"
        }
      ],
      "stateMutability": "view",
      "type": "function"
    },
    {
      "inputs": [],
      "name": "MAX_PER_TX",
      "outputs": [
        {
          "internalType": "uint256",
          "name": "",
          "type": "uint256"
        }
      ],
      "stateMutability": "view",
      "type": "function"
    },
    {
      "inputs": [],
      "name": "MAX_SUPPLY",
      "outputs": [
        {
          "internalType": "uint256",
          "name": "",
          "type": "uint256"
        }
      ],
      "stateMutability": "view",
      "type": "function"
    },
    {
      "inputs": [],
      "name": "PRICE",
      "outputs": [
        {
          "internalType": "uint256",
          "name": "",
          "type": "uint256"
        }
      ],
      "stateMutability": "view",
      "type": "function"
    },
    {
      "inputs": [
        {
          "internalType": "address",
          "name": "to",
          "type": "address"
        },
        {
          "internalType": "uint256",
          "name": "tokenId",
          "type": "uint256"
        }
      ],
      "name": "approve",
      "outputs": [],
      "stateMutability": "nonpayable",
      "type": "function"
    },
    {
      "inputs": [
        {
          "internalType": "address",
          "name": "owner",
          "type": "address"
        }
      ],
      "name": "balanceOf",
      "outputs": [
        {
          "internalType": "uint256",
          "name": "",
          "type": "uint256"
        }
      ],
      "stateMutability": "view",
      "type": "function"
    },
    {
      "inputs": [],
      "name": "baseTokenURI",
      "outputs": [
        {
          "internalType": "string",
          "name": "",
          "type": "string"
        }
      ],
      "stateMutability": "view",
      "type": "function"
    },
    {
      "inputs": [
        {
          "internalType": "uint256[]",
          "name": "tokenids",
          "type": "uint256[]"
        }
      ],
      "name": "burnNumbers",
      "outputs": [],
      "stateMutability": "nonpayable",
      "type": "function"
    },
    {
      "inputs": [
        {
          "internalType": "uint256",
          "name": "qty",
          "type": "uint256"
        }
      ],
      "name": "drawNumbers",
      "outputs": [],
      "stateMutability": "nonpayable",
      "type": "function"
    },
    {
      "inputs": [
        {
          "internalType": "uint256",
          "name": "",
          "type": "uint256"
        }
      ],
      "name": "drawnNumbers",
      "outputs": [
        {
          "internalType": "string",
          "name": "",
          "type": "string"
        }
      ],
      "stateMutability": "view",
      "type": "function"
    },
    {
      "inputs": [
        {
          "internalType": "uint256",
          "name": "tokenId",
          "type": "uint256"
        }
      ],
      "name": "getApproved",
      "outputs": [
        {
          "internalType": "address",
          "name": "",
          "type": "address"
        }
      ],
      "stateMutability": "view",
      "type": "function"
    },
    {
      "inputs": [],
      "name": "initialize",
      "outputs": [
        {
          "internalType": "bool",
          "name": "",
          "type": "bool"
        }
      ],
      "stateMutability": "view",
      "type": "function"
    },
    {
      "inputs": [
        {
          "internalType": "address",
          "name": "owner",
          "type": "address"
        },
        {
          "internalType": "address",
          "name": "operator",
          "type": "address"
        }
      ],
      "name": "isApprovedForAll",
      "outputs": [
        {
          "internalType": "bool",
          "name": "",
          "type": "bool"
        }
      ],
      "stateMutability": "view",
      "type": "function"
    },
    {
      "inputs": [],
      "name": "maxFreePerTx",
      "outputs": [
        {
          "internalType": "uint256",
          "name": "",
          "type": "uint256"
        }
      ],
      "stateMutability": "view",
      "type": "function"
    },
    {
      "inputs": [
        {
          "internalType": "uint256",
          "name": "amount",
          "type": "uint256"
        }
      ],
      "name": "mint",
      "outputs": [],
      "stateMutability": "payable",
      "type": "function"
    },
    {
      "inputs": [],
      "name": "name",
      "outputs": [
        {
          "internalType": "string",
          "name": "",
          "type": "string"
        }
      ],
      "stateMutability": "view",
      "type": "function"
    },
    {
      "inputs": [],
      "name": "owner",
      "outputs": [
        {
          "internalType": "address",
          "name": "",
          "type": "address"
        }
      ],
      "stateMutability": "view",
      "type": "function"
    },
    {
      "inputs": [
        {
          "internalType": "uint256",
          "name": "tokenId",
          "type": "uint256"
        }
      ],
      "name": "ownerOf",
      "outputs": [
        {
          "internalType": "address",
          "name": "",
          "type": "address"
        }
      ],
      "stateMutability": "view",
      "type": "function"
    },
    {
      "inputs": [
        {
          "internalType": "address",
          "name": "",
          "type": "address"
        }
      ],
      "name": "qtyFreeMinted",
      "outputs": [
        {
          "internalType": "uint256",
          "name": "",
          "type": "uint256"
        }
      ],
      "stateMutability": "view",
      "type": "function"
    },
    {
      "inputs": [],
      "name": "renounceOwnership",
      "outputs": [],
      "stateMutability": "nonpayable",
      "type": "function"
    },
    {
      "inputs": [],
      "name": "resetWinner",
      "outputs": [],
      "stateMutability": "nonpayable",
      "type": "function"
    },
    {
      "inputs": [
        {
          "internalType": "bool",
          "name": "_revealed",
          "type": "bool"
        }
      ],
      "name": "reveal",
      "outputs": [],
      "stateMutability": "nonpayable",
      "type": "function"
    },
    {
      "inputs": [],
      "name": "revealed",
      "outputs": [
        {
          "internalType": "bool",
          "name": "",
          "type": "bool"
        }
      ],
      "stateMutability": "view",
      "type": "function"
    },
    {
      "inputs": [
        {
          "internalType": "address",
          "name": "from",
          "type": "address"
        },
        {
          "internalType": "address",
          "name": "to",
          "type": "address"
        },
        {
          "internalType": "uint256",
          "name": "tokenId",
          "type": "uint256"
        }
      ],
      "name": "safeTransferFrom",
      "outputs": [],
      "stateMutability": "nonpayable",
      "type": "function"
    },
    {
      "inputs": [
        {
          "internalType": "address",
          "name": "from",
          "type": "address"
        },
        {
          "internalType": "address",
          "name": "to",
          "type": "address"
        },
        {
          "internalType": "uint256",
          "name": "tokenId",
          "type": "uint256"
        },
        {
          "internalType": "bytes",
          "name": "_data",
          "type": "bytes"
        }
      ],
      "name": "safeTransferFrom",
      "outputs": [],
      "stateMutability": "nonpayable",
      "type": "function"
    },
    {
      "inputs": [
        {
          "internalType": "address",
          "name": "operator",
          "type": "address"
        },
        {
          "internalType": "bool",
          "name": "approved",
          "type": "bool"
        }
      ],
      "name": "setApprovalForAll",
      "outputs": [],
      "stateMutability": "nonpayable",
      "type": "function"
    },
    {
      "inputs": [
        {
          "internalType": "string",
          "name": "baseURI",
          "type": "string"
        }
      ],
      "name": "setBaseURI",
      "outputs": [],
      "stateMutability": "nonpayable",
      "type": "function"
    },
    {
      "inputs": [
        {
          "internalType": "bool",
          "name": "_initialize",
          "type": "bool"
        }
      ],
      "name": "setInitialize",
      "outputs": [],
      "stateMutability": "nonpayable",
      "type": "function"
    },
    {
      "inputs": [
        {
          "internalType": "uint256",
          "name": "_limit",
          "type": "uint256"
        }
      ],
      "name": "setLimitFreeMintPerWallet",
      "outputs": [],
      "stateMutability": "nonpayable",
      "type": "function"
    },
    {
      "inputs": [
        {
          "internalType": "uint256",
          "name": "_amount",
          "type": "uint256"
        }
      ],
      "name": "setMaxFreeAmount",
      "outputs": [],
      "stateMutability": "nonpayable",
      "type": "function"
    },
    {
      "inputs": [
        {
          "internalType": "uint256",
          "name": "_limit",
          "type": "uint256"
        }
      ],
      "name": "setMaxLimitPerTransaction",
      "outputs": [],
      "stateMutability": "nonpayable",
      "type": "function"
    },
    {
      "inputs": [
        {
          "internalType": "uint256",
          "name": "_price",
          "type": "uint256"
        }
      ],
      "name": "setPrice",
      "outputs": [],
      "stateMutability": "nonpayable",
      "type": "function"
    },
    {
      "inputs": [
        {
          "internalType": "bytes4",
          "name": "interfaceId",
          "type": "bytes4"
        }
      ],
      "name": "supportsInterface",
      "outputs": [
        {
          "internalType": "bool",
          "name": "",
          "type": "bool"
        }
      ],
      "stateMutability": "view",
      "type": "function"
    },
    {
      "inputs": [],
      "name": "symbol",
      "outputs": [
        {
          "internalType": "string",
          "name": "",
          "type": "string"
        }
      ],
      "stateMutability": "view",
      "type": "function"
    },
    {
      "inputs": [
        {
          "internalType": "uint256",
          "name": "_tokenId",
          "type": "uint256"
        }
      ],
      "name": "tokenURI",
      "outputs": [
        {
          "internalType": "string",
          "name": "",
          "type": "string"
        }
      ],
      "stateMutability": "view",
      "type": "function"
    },
    {
      "inputs": [],
      "name": "totalSupply",
      "outputs": [
        {
          "internalType": "uint256",
          "name": "",
          "type": "uint256"
        }
      ],
      "stateMutability": "view",
      "type": "function"
    },
    {
      "inputs": [
        {
          "internalType": "address",
          "name": "from",
          "type": "address"
        },
        {
          "internalType": "address",
          "name": "to",
          "type": "address"
        },
        {
          "internalType": "uint256",
          "name": "tokenId",
          "type": "uint256"
        }
      ],
      "name": "transferFrom",
      "outputs": [],
      "stateMutability": "nonpayable",
      "type": "function"
    },
    {
      "inputs": [
        {
          "internalType": "address",
          "name": "newOwner",
          "type": "address"
        }
      ],
      "name": "transferOwnership",
      "outputs": [],
      "stateMutability": "nonpayable",
      "type": "function"
    },
    {
      "inputs": [],
      "name": "winner",
      "outputs": [
        {
          "internalType": "string",
          "name": "",
          "type": "string"
        }
      ],
      "stateMutability": "view",
      "type": "function"
    },
    {
      "inputs": [],
      "name": "withdraw",
      "outputs": [],
      "stateMutability": "nonpayable",
      "type": "function"
    }
  ],
  "bytecode": "0x60806040526040518060a0016040528060618152602001620046eb60619139600a90805190602001906200003592919062000283565b50611388600b556000600c556014600d5566038d7ea4c68000600e556001600f5560016010556001601160006101000a81548160ff0219169083151502179055506001601160016101000a81548160ff0219169083151502179055506040518060200160405280600081525060129080519060200190620000b892919062000283565b506000601355348015620000cb57600080fd5b506040518060400160405280600a81526020017f4574684c6f7474657279000000000000000000000000000000000000000000008152506040518060400160405280600681526020017f4554484c4f54000000000000000000000000000000000000000000000000000081525081600290805190602001906200015092919062000283565b5080600390805190602001906200016992919062000283565b506200017a620001b060201b60201c565b6000819055505050620001a262000196620001b560201b60201c565b620001bd60201b60201c565b600160098190555062000398565b600090565b600033905090565b6000600860009054906101000a900473ffffffffffffffffffffffffffffffffffffffff16905081600860006101000a81548173ffffffffffffffffffffffffffffffffffffffff021916908373ffffffffffffffffffffffffffffffffffffffff1602179055508173ffffffffffffffffffffffffffffffffffffffff168173ffffffffffffffffffffffffffffffffffffffff167f8be0079c531659141344cd1fd0a4f28419497f9722a3daafe3b4186f6b6457e060405160405180910390a35050565b828054620002919062000333565b90600052602060002090601f016020900481019282620002b5576000855562000301565b82601f10620002d057805160ff191683800117855562000301565b8280016001018555821562000301579182015b8281111562000300578251825591602001919060010190620002e3565b5b50905062000310919062000314565b5090565b5b808211156200032f57600081600090555060010162000315565b5090565b600060028204905060018216806200034c57607f821691505b6020821081141562000363576200036262000369565b5b50919050565b7f4e487b7100000000000000000000000000000000000000000000000000000000600052602260045260246000fd5b61434380620003a86000396000f3fe6080604052600436106102465760003560e01c80638d859f3e11610139578063b6e99235116100b6578063d8f56ddb1161007a578063d8f56ddb14610833578063dfbf53ae14610870578063e19979f51461089b578063e985e9c5146108c4578063f2fde38b14610901578063f43a22dc1461092a57610246565b8063b6e9923514610750578063b88d4fde14610779578063c87b56dd146107a2578063d3c5eca3146107df578063d547cfb71461080857610246565b806398710d1e116100fd57806398710d1e1461067a5780639e9fcffc146106a5578063a0712d68146106ce578063a22cb465146106ea578063ad66639e1461071357610246565b80638d859f3e146105a75780638da5cb5b146105d257806391b7f5ed146105fd578063940cd05b1461062657806395d89b411461064f57610246565b806342842e0e116101c757806370a082311161018b57806370a08231146104e6578063715018a6146105235780637d882e9b1461053a5780637dc949b2146105515780638129fc1c1461057c57610246565b806342842e0e14610403578063518302271461042c57806355f804b3146104575780636352211e146104805780636a3c167b146104bd57610246565b80630c23bb3f1161020e5780630c23bb3f1461034457806318160ddd1461036d57806323b872dd1461039857806332cb6b0c146103c15780633ccfd60b146103ec57610246565b806301ffc9a71461024b57806302ddb65b1461028857806306fdde03146102b3578063081812fc146102de578063095ea7b31461031b575b600080fd5b34801561025757600080fd5b50610272600480360381019061026d91906134f6565b610955565b60405161027f9190613a4c565b60405180910390f35b34801561029457600080fd5b5061029d6109e7565b6040516102aa9190613bc9565b60405180910390f35b3480156102bf57600080fd5b506102c86109ed565b6040516102d59190613a67565b60405180910390f35b3480156102ea57600080fd5b5061030560048036038101906103009190613589565b610a7f565b60405161031291906139bc565b60405180910390f35b34801561032757600080fd5b50610342600480360381019061033d9190613450565b610afb565b005b34801561035057600080fd5b5061036b60048036038101906103669190613589565b610c3c565b005b34801561037957600080fd5b50610382610cc2565b60405161038f9190613bc9565b60405180910390f35b3480156103a457600080fd5b506103bf60048036038101906103ba919061334a565b610cd9565b005b3480156103cd57600080fd5b506103d6610ffe565b6040516103e39190613bc9565b60405180910390f35b3480156103f857600080fd5b50610401611004565b005b34801561040f57600080fd5b5061042a6004803603810190610425919061334a565b6110e2565b005b34801561043857600080fd5b50610441611102565b60405161044e9190613a4c565b60405180910390f35b34801561046357600080fd5b5061047e60048036038101906104799190613548565b611115565b005b34801561048c57600080fd5b506104a760048036038101906104a29190613589565b6111ab565b6040516104b491906139bc565b60405180910390f35b3480156104c957600080fd5b506104e460048036038101906104df91906134cd565b6111bd565b005b3480156104f257600080fd5b5061050d600480360381019061050891906132e5565b611256565b60405161051a9190613bc9565b60405180910390f35b34801561052f57600080fd5b5061053861130f565b005b34801561054657600080fd5b5061054f611397565b005b34801561055d57600080fd5b50610566611443565b6040516105739190613bc9565b60405180910390f35b34801561058857600080fd5b50610591611449565b60405161059e9190613a4c565b60405180910390f35b3480156105b357600080fd5b506105bc61145c565b6040516105c99190613bc9565b60405180910390f35b3480156105de57600080fd5b506105e7611462565b6040516105f491906139bc565b60405180910390f35b34801561060957600080fd5b50610624600480360381019061061f9190613589565b61148c565b005b34801561063257600080fd5b5061064d600480360381019061064891906134cd565b611512565b005b34801561065b57600080fd5b506106646115ab565b6040516106719190613a67565b60405180910390f35b34801561068657600080fd5b5061068f61163d565b60405161069c9190613bc9565b60405180910390f35b3480156106b157600080fd5b506106cc60048036038101906106c79190613589565b611643565b005b6106e860048036038101906106e39190613589565b6116c9565b005b3480156106f657600080fd5b50610711600480360381019061070c9190613414565b6119b1565b005b34801561071f57600080fd5b5061073a600480360381019061073591906132e5565b611b29565b6040516107479190613bc9565b60405180910390f35b34801561075c57600080fd5b5061077760048036038101906107729190613589565b611b41565b005b34801561078557600080fd5b506107a0600480360381019061079b9190613399565b611cf3565b005b3480156107ae57600080fd5b506107c960048036038101906107c49190613589565b611d66565b6040516107d69190613a67565b60405180910390f35b3480156107eb57600080fd5b506108066004803603810190610801919061348c565b611de2565b005b34801561081457600080fd5b5061081d611f0f565b60405161082a9190613a67565b60405180910390f35b34801561083f57600080fd5b5061085a60048036038101906108559190613589565b611f9d565b6040516108679190613a67565b60405180910390f35b34801561087c57600080fd5b5061088561203d565b6040516108929190613a67565b60405180910390f35b3480156108a757600080fd5b506108c260048036038101906108bd9190613589565b6120cb565b005b3480156108d057600080fd5b506108eb60048036038101906108e6919061330e565b612151565b6040516108f89190613a4c565b60405180910390f35b34801561090d57600080fd5b50610928600480360381019061092391906132e5565b6121e5565b005b34801561093657600080fd5b5061093f6122dd565b60405161094c9190613bc9565b60405180910390f35b60006301ffc9a760e01b827bffffffffffffffffffffffffffffffffffffffffffffffffffffffff191614806109b057506380ac58cd60e01b827bffffffffffffffffffffffffffffffffffffffffffffffffffffffff1916145b806109e05750635b5e139f60e01b827bffffffffffffffffffffffffffffffffffffffffffffffffffffffff1916145b9050919050565b600c5481565b6060600280546109fc90613ec5565b80601f0160208091040260200160405190810160405280929190818152602001828054610a2890613ec5565b8015610a755780601f10610a4a57610100808354040283529160200191610a75565b820191906000526020600020905b815481529060010190602001808311610a5857829003601f168201915b5050505050905090565b6000610a8a826122e3565b610ac0576040517fcf4700e400000000000000000000000000000000000000000000000000000000815260040160405180910390fd5b6006600083815260200190815260200160002060009054906101000a900473ffffffffffffffffffffffffffffffffffffffff169050919050565b6000610b06826111ab565b90508073ffffffffffffffffffffffffffffffffffffffff16610b27612342565b73ffffffffffffffffffffffffffffffffffffffff1614610b8a57610b5381610b4e612342565b612151565b610b89576040517fcfb3b94200000000000000000000000000000000000000000000000000000000815260040160405180910390fd5b5b826006600084815260200190815260200160002060006101000a81548173ffffffffffffffffffffffffffffffffffffffff021916908373ffffffffffffffffffffffffffffffffffffffff160217905550818373ffffffffffffffffffffffffffffffffffffffff168273ffffffffffffffffffffffffffffffffffffffff167f8c5be1e5ebec7d5bd14f71427d1e84f3dd0314c0f7b2291e5b200ac8c7c3b92560405160405180910390a4505050565b610c4461234a565b73ffffffffffffffffffffffffffffffffffffffff16610c62611462565b73ffffffffffffffffffffffffffffffffffffffff1614610cb8576040517f08c379a0000000000000000000000000000000000000000000000000000000008152600401610caf90613b09565b60405180910390fd5b80600c8190555050565b6000610ccc612352565b6001546000540303905090565b6000610ce482612357565b90508373ffffffffffffffffffffffffffffffffffffffff168173ffffffffffffffffffffffffffffffffffffffff1614610d4b576040517fa114810000000000000000000000000000000000000000000000000000000000815260040160405180910390fd5b600080610d5784612425565b91509150610d6d8187610d68612342565b612447565b610db957610d8286610d7d612342565b612151565b610db8576040517f59c896be00000000000000000000000000000000000000000000000000000000815260040160405180910390fd5b5b600073ffffffffffffffffffffffffffffffffffffffff168573ffffffffffffffffffffffffffffffffffffffff161415610e20576040517fea553b3400000000000000000000000000000000000000000000000000000000815260040160405180910390fd5b610e2d868686600161248b565b8015610e3857600082555b600560008773ffffffffffffffffffffffffffffffffffffffff1673ffffffffffffffffffffffffffffffffffffffff168152602001908152602001600020600081546001900391905081905550600560008673ffffffffffffffffffffffffffffffffffffffff1673ffffffffffffffffffffffffffffffffffffffff1681526020019081526020016000206000815460010191905081905550610f0685610ee2888887612491565b7c0200000000000000000000000000000000000000000000000000000000176124b9565b600460008681526020019081526020016000208190555060007c020000000000000000000000000000000000000000000000000000000084161415610f8e576000600185019050600060046000838152602001908152602001600020541415610f8c576000548114610f8b578360046000838152602001908152602001600020819055505b5b505b838573ffffffffffffffffffffffffffffffffffffffff168773ffffffffffffffffffffffffffffffffffffffff167fddf252ad1be2c89b69c2b068fc378daa952ba7f163c4a11628f55a4df523b3ef60405160405180910390a4610ff686868660016124e4565b505050505050565b600b5481565b61100c61234a565b73ffffffffffffffffffffffffffffffffffffffff1661102a611462565b73ffffffffffffffffffffffffffffffffffffffff1614611080576040517f08c379a000000000000000000000000000000000000000000000000000000000815260040161107790613b09565b60405180910390fd5b600260095414156110c6576040517f08c379a00000000000000000000000000000000000000000000000000000000081526004016110bd90613ba9565b60405180910390fd5b60026009819055506110d833476124ea565b6001600981905550565b6110fd83838360405180602001604052806000815250611cf3565b505050565b601160019054906101000a900460ff1681565b61111d61234a565b73ffffffffffffffffffffffffffffffffffffffff1661113b611462565b73ffffffffffffffffffffffffffffffffffffffff1614611191576040517f08c379a000000000000000000000000000000000000000000000000000000000815260040161118890613b09565b60405180910390fd5b80600a90805190602001906111a7929190613073565b5050565b60006111b682612357565b9050919050565b6111c561234a565b73ffffffffffffffffffffffffffffffffffffffff166111e3611462565b73ffffffffffffffffffffffffffffffffffffffff1614611239576040517f08c379a000000000000000000000000000000000000000000000000000000000815260040161123090613b09565b60405180910390fd5b80601160006101000a81548160ff02191690831515021790555050565b60008073ffffffffffffffffffffffffffffffffffffffff168273ffffffffffffffffffffffffffffffffffffffff1614156112be576040517f8f4eb60400000000000000000000000000000000000000000000000000000000815260040160405180910390fd5b67ffffffffffffffff600560008473ffffffffffffffffffffffffffffffffffffffff1673ffffffffffffffffffffffffffffffffffffffff16815260200190815260200160002054169050919050565b61131761234a565b73ffffffffffffffffffffffffffffffffffffffff16611335611462565b73ffffffffffffffffffffffffffffffffffffffff161461138b576040517f08c379a000000000000000000000000000000000000000000000000000000000815260040161138290613b09565b60405180910390fd5b61139560006125de565b565b61139f61234a565b73ffffffffffffffffffffffffffffffffffffffff166113bd611462565b73ffffffffffffffffffffffffffffffffffffffff1614611413576040517f08c379a000000000000000000000000000000000000000000000000000000000815260040161140a90613b09565b60405180910390fd5b6040518060200160405280600081525060129080519060200190611438929190613073565b506000601381905550565b60105481565b601160009054906101000a900460ff1681565b600e5481565b6000600860009054906101000a900473ffffffffffffffffffffffffffffffffffffffff16905090565b61149461234a565b73ffffffffffffffffffffffffffffffffffffffff166114b2611462565b73ffffffffffffffffffffffffffffffffffffffff1614611508576040517f08c379a00000000000000000000000000000000000000000000000000000000081526004016114ff90613b09565b60405180910390fd5b80600e8190555050565b61151a61234a565b73ffffffffffffffffffffffffffffffffffffffff16611538611462565b73ffffffffffffffffffffffffffffffffffffffff161461158e576040517f08c379a000000000000000000000000000000000000000000000000000000000815260040161158590613b09565b60405180910390fd5b80601160016101000a81548160ff02191690831515021790555050565b6060600380546115ba90613ec5565b80601f01602080910402602001604051908101604052809291908181526020018280546115e690613ec5565b80156116335780601f1061160857610100808354040283529160200191611633565b820191906000526020600020905b81548152906001019060200180831161161657829003601f168201915b5050505050905090565b600f5481565b61164b61234a565b73ffffffffffffffffffffffffffffffffffffffff16611669611462565b73ffffffffffffffffffffffffffffffffffffffff16146116bf576040517f08c379a00000000000000000000000000000000000000000000000000000000081526004016116b690613b09565b60405180910390fd5b80600d8190555050565b6000600e54905060008083116116e05760016116e2565b825b905060006001600c546116f59190613cfa565b826116fe610cc2565b6117089190613cfa565b1080156117615750600f5482601460003373ffffffffffffffffffffffffffffffffffffffff1673ffffffffffffffffffffffffffffffffffffffff1681526020019081526020016000205461175e9190613cfa565b11155b90508015611818576000925081601460003373ffffffffffffffffffffffffffffffffffffffff1673ffffffffffffffffffffffffffffffffffffffff16815260200190815260200160002060008282546117bc9190613cfa565b9250508190555060016010546117d29190613cfa565b8210611813576040517f08c379a000000000000000000000000000000000000000000000000000000000815260040161180a90613b89565b60405180910390fd5b611869565b6001600d546118279190613cfa565b8210611868576040517f08c379a000000000000000000000000000000000000000000000000000000000815260040161185f90613b89565b60405180910390fd5b5b601160009054906101000a900460ff166118b8576040517f08c379a00000000000000000000000000000000000000000000000000000000081526004016118af90613b29565b60405180910390fd5b82826118c49190613d81565b341015611906576040517f08c379a00000000000000000000000000000000000000000000000000000000081526004016118fd90613b69565b60405180910390fd5b6001600b546119159190613cfa565b8261191e610cc2565b6119289190613cfa565b10611968576040517f08c379a000000000000000000000000000000000000000000000000000000000815260040161195f90613a89565b60405180910390fd5b61197233836126a4565b7f5cd26ed1ceec24557cb87e1e6051eed9d7e88030641964fd0417b43ff690bb7333856040516119a3929190613a23565b60405180910390a150505050565b6119b9612342565b73ffffffffffffffffffffffffffffffffffffffff168273ffffffffffffffffffffffffffffffffffffffff161415611a1e576040517fb06307db00000000000000000000000000000000000000000000000000000000815260040160405180910390fd5b8060076000611a2b612342565b73ffffffffffffffffffffffffffffffffffffffff1673ffffffffffffffffffffffffffffffffffffffff16815260200190815260200160002060008473ffffffffffffffffffffffffffffffffffffffff1673ffffffffffffffffffffffffffffffffffffffff16815260200190815260200160002060006101000a81548160ff0219169083151502179055508173ffffffffffffffffffffffffffffffffffffffff16611ad8612342565b73ffffffffffffffffffffffffffffffffffffffff167f17307eab39ab6107e8899845ad3d59bd9653f200f220920489ca2b5937696c3183604051611b1d9190613a4c565b60405180910390a35050565b60146020528060005260406000206000915090505481565b611b4961234a565b73ffffffffffffffffffffffffffffffffffffffff16611b67611462565b73ffffffffffffffffffffffffffffffffffffffff1614611bbd576040517f08c379a0000000000000000000000000000000000000000000000000000000008152600401611bb490613b09565b60405180910390fd5b60005b81811015611cef576000611bdd611bd8600b546126c2565b612716565b90505b611bea83826128c3565b15611c0957611c02611bfd600b546126c2565b612716565b9050611be0565b80601560008481526020019081526020016000209080519060200190611c30929190613073565b50611cc560128054611c4190613ec5565b80601f0160208091040260200160405190810160405280929190818152602001828054611c6d90613ec5565b8015611cba5780601f10611c8f57610100808354040283529160200191611cba565b820191906000526020600020905b815481529060010190602001808311611c9d57829003601f168201915b5050505050826129a2565b60129080519060200190611cda929190613073565b50508080611ce790613f28565b915050611bc0565b5050565b611cfe848484610cd9565b60008373ffffffffffffffffffffffffffffffffffffffff163b14611d6057611d29848484846129ce565b611d5f576040517fd1a57ed600000000000000000000000000000000000000000000000000000000815260040160405180910390fd5b5b50505050565b6060611d71826122e3565b611db0576040517f08c379a0000000000000000000000000000000000000000000000000000000008152600401611da790613b49565b60405180910390fd5b600a611dbb83612716565b604051602001611dcc92919061395d565b6040516020818303038152906040529050919050565b611dea61234a565b73ffffffffffffffffffffffffffffffffffffffff16611e08611462565b73ffffffffffffffffffffffffffffffffffffffff1614611e5e576040517f08c379a0000000000000000000000000000000000000000000000000000000008152600401611e5590613b09565b60405180910390fd5b60008151905060005b81811015611ed1576000838281518110611eaa577f4e487b7100000000000000000000000000000000000000000000000000000000600052603260045260246000fd5b60200260200101519050611ebd81612b2e565b508080611ec990613f28565b915050611e67565b507f546bef8036c11917a6a2ed282cd3086b869060c3fa3ec63a0385c35ff6fb84d53382604051611f03929190613a23565b60405180910390a15050565b600a8054611f1c90613ec5565b80601f0160208091040260200160405190810160405280929190818152602001828054611f4890613ec5565b8015611f955780601f10611f6a57610100808354040283529160200191611f95565b820191906000526020600020905b815481529060010190602001808311611f7857829003601f168201915b505050505081565b60156020528060005260406000206000915090508054611fbc90613ec5565b80601f0160208091040260200160405190810160405280929190818152602001828054611fe890613ec5565b80156120355780601f1061200a57610100808354040283529160200191612035565b820191906000526020600020905b81548152906001019060200180831161201857829003601f168201915b505050505081565b6012805461204a90613ec5565b80601f016020809104026020016040519081016040528092919081815260200182805461207690613ec5565b80156120c35780601f10612098576101008083540402835291602001916120c3565b820191906000526020600020905b8154815290600101906020018083116120a657829003601f168201915b505050505081565b6120d361234a565b73ffffffffffffffffffffffffffffffffffffffff166120f1611462565b73ffffffffffffffffffffffffffffffffffffffff1614612147576040517f08c379a000000000000000000000000000000000000000000000000000000000815260040161213e90613b09565b60405180910390fd5b80600f8190555050565b6000600760008473ffffffffffffffffffffffffffffffffffffffff1673ffffffffffffffffffffffffffffffffffffffff16815260200190815260200160002060008373ffffffffffffffffffffffffffffffffffffffff1673ffffffffffffffffffffffffffffffffffffffff16815260200190815260200160002060009054906101000a900460ff16905092915050565b6121ed61234a565b73ffffffffffffffffffffffffffffffffffffffff1661220b611462565b73ffffffffffffffffffffffffffffffffffffffff1614612261576040517f08c379a000000000000000000000000000000000000000000000000000000000815260040161225890613b09565b60405180910390fd5b600073ffffffffffffffffffffffffffffffffffffffff168173ffffffffffffffffffffffffffffffffffffffff1614156122d1576040517f08c379a00000000000000000000000000000000000000000000000000000000081526004016122c890613aa9565b60405180910390fd5b6122da816125de565b50565b600d5481565b6000816122ee612352565b111580156122fd575060005482105b801561233b575060007c0100000000000000000000000000000000000000000000000000000000600460008581526020019081526020016000205416145b9050919050565b600033905090565b600033905090565b600090565b60008082905080612366612352565b116123ee576000548110156123ed5760006004600083815260200190815260200160002054905060007c0100000000000000000000000000000000000000000000000000000000821614156123eb575b60008114156123e15760046000836001900393508381526020019081526020016000205490506123b6565b8092505050612420565b505b5b6040517fdf2d9b4200000000000000000000000000000000000000000000000000000000815260040160405180910390fd5b919050565b6000806000600690508360005280602052604060002092508254915050915091565b600073ffffffffffffffffffffffffffffffffffffffff8316925073ffffffffffffffffffffffffffffffffffffffff821691508382148383141790509392505050565b50505050565b60008060e883901c905060e86124a8868684612b3c565b62ffffff16901b9150509392505050565b600073ffffffffffffffffffffffffffffffffffffffff83169250814260a01b178317905092915050565b50505050565b8047101561252d576040517f08c379a000000000000000000000000000000000000000000000000000000000815260040161252490613ae9565b60405180910390fd5b60008273ffffffffffffffffffffffffffffffffffffffff16826040516125539061398c565b60006040518083038185875af1925050503d8060008114612590576040519150601f19603f3d011682016040523d82523d6000602084013e612595565b606091505b50509050806125d9576040517f08c379a00000000000000000000000000000000000000000000000000000000081526004016125d090613ac9565b60405180910390fd5b505050565b6000600860009054906101000a900473ffffffffffffffffffffffffffffffffffffffff16905081600860006101000a81548173ffffffffffffffffffffffffffffffffffffffff021916908373ffffffffffffffffffffffffffffffffffffffff1602179055508173ffffffffffffffffffffffffffffffffffffffff168173ffffffffffffffffffffffffffffffffffffffff167f8be0079c531659141344cd1fd0a4f28419497f9722a3daafe3b4186f6b6457e060405160405180910390a35050565b6126be828260405180602001604052806000815250612b45565b5050565b600081601360008154809291906126d890613f28565b919050556040516020016126ec91906139a1565b6040516020818303038152906040528051906020012060001c61270f9190613f7b565b9050919050565b6060600082141561275e576040518060400160405280600181526020017f300000000000000000000000000000000000000000000000000000000000000081525090506128be565b600082905060005b6000821461279057808061277990613f28565b915050600a826127899190613d50565b9150612766565b60008167ffffffffffffffff8111156127d2577f4e487b7100000000000000000000000000000000000000000000000000000000600052604160045260246000fd5b6040519080825280601f01601f1916602001820160405280156128045781602001600182028036833780820191505090505b5090505b600085146128b75760018261281d9190613ddb565b9150600a8561282c9190613f7b565b60306128389190613cfa565b60f81b818381518110612874577f4e487b7100000000000000000000000000000000000000000000000000000000600052603260045260246000fd5b60200101907effffffffffffffffffffffffffffffffffffffffffffffffffffffffffffff1916908160001a905350600a856128b09190613d50565b9450612808565b8093505050505b919050565b6000805b83811015612996576129746015600083815260200190815260200160002080546128f090613ec5565b80601f016020809104026020016040519081016040528092919081815260200182805461291c90613ec5565b80156129695780601f1061293e57610100808354040283529160200191612969565b820191906000526020600020905b81548152906001019060200180831161294c57829003601f168201915b505050505084612be2565b1561298357600191505061299c565b808061298e90613f28565b9150506128c7565b50600090505b92915050565b606082826040516020016129b7929190613913565b604051602081830303815290604052905092915050565b60008373ffffffffffffffffffffffffffffffffffffffff1663150b7a026129f4612342565b8786866040518563ffffffff1660e01b8152600401612a1694939291906139d7565b602060405180830381600087803b158015612a3057600080fd5b505af1925050508015612a6157506040513d601f19601f82011682018060405250810190612a5e919061351f565b60015b612adb573d8060008114612a91576040519150601f19603f3d011682016040523d82523d6000602084013e612a96565b606091505b50600081511415612ad3576040517fd1a57ed600000000000000000000000000000000000000000000000000000000815260040160405180910390fd5b805181602001fd5b63150b7a0260e01b7bffffffffffffffffffffffffffffffffffffffffffffffffffffffff1916817bffffffffffffffffffffffffffffffffffffffffffffffffffffffff191614915050949350505050565b612b39816000612c3b565b50565b60009392505050565b612b4f8383612e8f565b60008373ffffffffffffffffffffffffffffffffffffffff163b14612bdd57600080549050600083820390505b612b8f60008683806001019450866129ce565b612bc5576040517fd1a57ed600000000000000000000000000000000000000000000000000000000815260040160405180910390fd5b818110612b7c578160005414612bda57600080fd5b50505b505050565b600081604051602001612bf59190613946565b6040516020818303038152906040528051906020012083604051602001612c1c9190613946565b6040516020818303038152906040528051906020012014905092915050565b6000612c4683612357565b90506000819050600080612c5986612425565b915091508415612cc257612c758184612c70612342565b612447565b612cc157612c8a83612c85612342565b612151565b612cc0576040517f59c896be00000000000000000000000000000000000000000000000000000000815260040160405180910390fd5b5b5b612cd083600088600161248b565b8015612cdb57600082555b600160806001901b03600560008573ffffffffffffffffffffffffffffffffffffffff1673ffffffffffffffffffffffffffffffffffffffff16815260200190815260200160002060008282540192505081905550612d8383612d4085600088612491565b7c02000000000000000000000000000000000000000000000000000000007c010000000000000000000000000000000000000000000000000000000017176124b9565b600460008881526020019081526020016000208190555060007c020000000000000000000000000000000000000000000000000000000085161415612e0b576000600187019050600060046000838152602001908152602001600020541415612e09576000548114612e08578460046000838152602001908152602001600020819055505b5b505b85600073ffffffffffffffffffffffffffffffffffffffff168473ffffffffffffffffffffffffffffffffffffffff167fddf252ad1be2c89b69c2b068fc378daa952ba7f163c4a11628f55a4df523b3ef60405160405180910390a4612e758360008860016124e4565b600160008154809291906001019190505550505050505050565b600080549050600073ffffffffffffffffffffffffffffffffffffffff168373ffffffffffffffffffffffffffffffffffffffff161415612efc576040517f2e07630000000000000000000000000000000000000000000000000000000000815260040160405180910390fd5b6000821415612f37576040517fb562e8dd00000000000000000000000000000000000000000000000000000000815260040160405180910390fd5b612f44600084838561248b565b600160406001901b178202600560008573ffffffffffffffffffffffffffffffffffffffff1673ffffffffffffffffffffffffffffffffffffffff16815260200190815260200160002060008282540192505081905550612fbb83612fac6000866000612491565b612fb585613063565b176124b9565b60046000838152602001908152602001600020819055506000819050600083830190505b818060010192508573ffffffffffffffffffffffffffffffffffffffff16600073ffffffffffffffffffffffffffffffffffffffff167fddf252ad1be2c89b69c2b068fc378daa952ba7f163c4a11628f55a4df523b3ef60405160405180910390a4808210612fdf5780600081905550505061305e60008483856124e4565b505050565b60006001821460e11b9050919050565b82805461307f90613ec5565b90600052602060002090601f0160209004810192826130a157600085556130e8565b82601f106130ba57805160ff19168380011785556130e8565b828001600101855582156130e8579182015b828111156130e75782518255916020019190600101906130cc565b5b5090506130f591906130f9565b5090565b5b808211156131125760008160009055506001016130fa565b5090565b600061312961312484613c09565b613be4565b9050808382526020820190508285602086028201111561314857600080fd5b60005b85811015613178578161315e88826132d0565b84526020840193506020830192505060018101905061314b565b5050509392505050565b600061319561319084613c35565b613be4565b9050828152602081018484840111156131ad57600080fd5b6131b8848285613e83565b509392505050565b60006131d36131ce84613c66565b613be4565b9050828152602081018484840111156131eb57600080fd5b6131f6848285613e83565b509392505050565b60008135905061320d816142b1565b92915050565b600082601f83011261322457600080fd5b8135613234848260208601613116565b91505092915050565b60008135905061324c816142c8565b92915050565b600081359050613261816142df565b92915050565b600081519050613276816142df565b92915050565b600082601f83011261328d57600080fd5b813561329d848260208601613182565b91505092915050565b600082601f8301126132b757600080fd5b81356132c78482602086016131c0565b91505092915050565b6000813590506132df816142f6565b92915050565b6000602082840312156132f757600080fd5b6000613305848285016131fe565b91505092915050565b6000806040838503121561332157600080fd5b600061332f858286016131fe565b9250506020613340858286016131fe565b9150509250929050565b60008060006060848603121561335f57600080fd5b600061336d868287016131fe565b935050602061337e868287016131fe565b925050604061338f868287016132d0565b9150509250925092565b600080600080608085870312156133af57600080fd5b60006133bd878288016131fe565b94505060206133ce878288016131fe565b93505060406133df878288016132d0565b925050606085013567ffffffffffffffff8111156133fc57600080fd5b6134088782880161327c565b91505092959194509250565b6000806040838503121561342757600080fd5b6000613435858286016131fe565b92505060206134468582860161323d565b9150509250929050565b6000806040838503121561346357600080fd5b6000613471858286016131fe565b9250506020613482858286016132d0565b9150509250929050565b60006020828403121561349e57600080fd5b600082013567ffffffffffffffff8111156134b857600080fd5b6134c484828501613213565b91505092915050565b6000602082840312156134df57600080fd5b60006134ed8482850161323d565b91505092915050565b60006020828403121561350857600080fd5b600061351684828501613252565b91505092915050565b60006020828403121561353157600080fd5b600061353f84828501613267565b91505092915050565b60006020828403121561355a57600080fd5b600082013567ffffffffffffffff81111561357457600080fd5b613580848285016132a6565b91505092915050565b60006020828403121561359b57600080fd5b60006135a9848285016132d0565b91505092915050565b6135bb81613e0f565b82525050565b6135ca81613e21565b82525050565b60006135db82613cac565b6135e58185613cc2565b93506135f5818560208601613e92565b6135fe81614068565b840191505092915050565b600061361482613cac565b61361e8185613cd3565b935061362e818560208601613e92565b80840191505092915050565b600061364582613cb7565b61364f8185613cde565b935061365f818560208601613e92565b61366881614068565b840191505092915050565b600061367e82613cb7565b6136888185613cef565b9350613698818560208601613e92565b80840191505092915050565b600081546136b181613ec5565b6136bb8186613cef565b945060018216600081146136d657600181146136e75761371a565b60ff1983168652818601935061371a565b6136f085613c97565b60005b83811015613712578154818901526001820191506020810190506136f3565b838801955050505b50505092915050565b6000613730600783613cde565b915061373b82614079565b602082019050919050565b6000613753602683613cde565b915061375e826140a2565b604082019050919050565b6000613776603a83613cde565b9150613781826140f1565b604082019050919050565b6000613799601d83613cde565b91506137a482614140565b602082019050919050565b7f2000000000000000000000000000000000000000000000000000000000000000815250565b60006137e2602083613cde565b91506137ed82614169565b602082019050919050565b6000613805601883613cde565b915061381082614192565b602082019050919050565b6000613828602f83613cde565b9150613833826141bb565b604082019050919050565b600061384b601d83613cde565b91506138568261420a565b602082019050919050565b600061386e600083613cd3565b915061387982614233565b600082019050919050565b6000613891601383613cde565b915061389c82614236565b602082019050919050565b60006138b4601f83613cde565b91506138bf8261425f565b602082019050919050565b60006138d7600183613cef565b91506138e282614288565b600182019050919050565b6138f681613e79565b82525050565b61390d61390882613e79565b613f71565b82525050565b600061391f8285613609565b915061392a826137af565b60018201915061393a8284613609565b91508190509392505050565b60006139528284613673565b915081905092915050565b600061396982856136a4565b9150613974826138ca565b91506139808284613673565b91508190509392505050565b600061399782613861565b9150819050919050565b60006139ad82846138fc565b60208201915081905092915050565b60006020820190506139d160008301846135b2565b92915050565b60006080820190506139ec60008301876135b2565b6139f960208301866135b2565b613a0660408301856138ed565b8181036060830152613a1881846135d0565b905095945050505050565b6000604082019050613a3860008301856135b2565b613a4560208301846138ed565b9392505050565b6000602082019050613a6160008301846135c1565b92915050565b60006020820190508181036000830152613a81818461363a565b905092915050565b60006020820190508181036000830152613aa281613723565b9050919050565b60006020820190508181036000830152613ac281613746565b9050919050565b60006020820190508181036000830152613ae281613769565b9050919050565b60006020820190508181036000830152613b028161378c565b9050919050565b60006020820190508181036000830152613b22816137d5565b9050919050565b60006020820190508181036000830152613b42816137f8565b9050919050565b60006020820190508181036000830152613b628161381b565b9050919050565b60006020820190508181036000830152613b828161383e565b9050919050565b60006020820190508181036000830152613ba281613884565b9050919050565b60006020820190508181036000830152613bc2816138a7565b9050919050565b6000602082019050613bde60008301846138ed565b92915050565b6000613bee613bff565b9050613bfa8282613ef7565b919050565b6000604051905090565b600067ffffffffffffffff821115613c2457613c23614039565b5b602082029050602081019050919050565b600067ffffffffffffffff821115613c5057613c4f614039565b5b613c5982614068565b9050602081019050919050565b600067ffffffffffffffff821115613c8157613c80614039565b5b613c8a82614068565b9050602081019050919050565b60008190508160005260206000209050919050565b600081519050919050565b600081519050919050565b600082825260208201905092915050565b600081905092915050565b600082825260208201905092915050565b600081905092915050565b6000613d0582613e79565b9150613d1083613e79565b9250827fffffffffffffffffffffffffffffffffffffffffffffffffffffffffffffffff03821115613d4557613d44613fac565b5b828201905092915050565b6000613d5b82613e79565b9150613d6683613e79565b925082613d7657613d75613fdb565b5b828204905092915050565b6000613d8c82613e79565b9150613d9783613e79565b9250817fffffffffffffffffffffffffffffffffffffffffffffffffffffffffffffffff0483118215151615613dd057613dcf613fac565b5b828202905092915050565b6000613de682613e79565b9150613df183613e79565b925082821015613e0457613e03613fac565b5b828203905092915050565b6000613e1a82613e59565b9050919050565b60008115159050919050565b60007fffffffff0000000000000000000000000000000000000000000000000000000082169050919050565b600073ffffffffffffffffffffffffffffffffffffffff82169050919050565b6000819050919050565b82818337600083830152505050565b60005b83811015613eb0578082015181840152602081019050613e95565b83811115613ebf576000848401525b50505050565b60006002820490506001821680613edd57607f821691505b60208210811415613ef157613ef061400a565b5b50919050565b613f0082614068565b810181811067ffffffffffffffff82111715613f1f57613f1e614039565b5b80604052505050565b6000613f3382613e79565b91507fffffffffffffffffffffffffffffffffffffffffffffffffffffffffffffffff821415613f6657613f65613fac565b5b600182019050919050565b6000819050919050565b6000613f8682613e79565b9150613f9183613e79565b925082613fa157613fa0613fdb565b5b828206905092915050565b7f4e487b7100000000000000000000000000000000000000000000000000000000600052601160045260246000fd5b7f4e487b7100000000000000000000000000000000000000000000000000000000600052601260045260246000fd5b7f4e487b7100000000000000000000000000000000000000000000000000000000600052602260045260246000fd5b7f4e487b7100000000000000000000000000000000000000000000000000000000600052604160045260246000fd5b6000601f19601f8301169050919050565b7f4e6f206d6f726500000000000000000000000000000000000000000000000000600082015250565b7f4f776e61626c653a206e6577206f776e657220697320746865207a65726f206160008201527f6464726573730000000000000000000000000000000000000000000000000000602082015250565b7f416464726573733a20756e61626c6520746f2073656e642076616c75652c207260008201527f6563697069656e74206d61792068617665207265766572746564000000000000602082015250565b7f416464726573733a20696e73756666696369656e742062616c616e6365000000600082015250565b7f4f776e61626c653a2063616c6c6572206973206e6f7420746865206f776e6572600082015250565b7f4d696e74696e67206973206e6f74206c697665207965742e0000000000000000600082015250565b7f4552433732314d657461646174613a2055524920717565727920666f72206e6f60008201527f6e6578697374656e7420746f6b656e0000000000000000000000000000000000602082015250565b7f506c656173652073656e642074686520657861637420616d6f756e742e000000600082015250565b50565b7f4d61782070657220545820726561636865642e00000000000000000000000000600082015250565b7f5265656e7472616e637947756172643a207265656e7472616e742063616c6c00600082015250565b7f2f00000000000000000000000000000000000000000000000000000000000000600082015250565b6142ba81613e0f565b81146142c557600080fd5b50565b6142d181613e21565b81146142dc57600080fd5b50565b6142e881613e2d565b81146142f357600080fd5b50565b6142ff81613e79565b811461430a57600080fd5b5056fea2646970667358221220ecfbca257509532754f0cec49aa5abed0d819b19224c460ec7384aea74cee81d64736f6c6343000804003368747470733a2f2f62616679626569646168756474776c64696c6e6c77663765777a6d776e646a61653279777a6c6c6777616835333675706876707a346837766462752e697066732e6e667473746f726167652e6c696e6b2f6d65746164617461",
  "linkReferences": {},
  "deployedLinkReferences": {}
}